{
  "contractName": "SupChain",
  "abi": [
    {
      "anonymous": false,
      "inputs": [
        {
          "indexed": false,
          "internalType": "uint256",
          "name": "_orderID",
          "type": "uint256"
        },
        {
          "indexed": false,
          "internalType": "address",
          "name": "_counterparty",
          "type": "address"
        }
      ],
      "name": "orderCompleted",
      "type": "event"
    },
    {
      "anonymous": false,
      "inputs": [
        {
          "indexed": false,
          "internalType": "uint256",
          "name": "_orderID",
          "type": "uint256"
        },
        {
          "indexed": false,
          "internalType": "address",
          "name": "_counterparty",
          "type": "address"
        }
      ],
      "name": "orderCreated",
      "type": "event"
    },
    {
      "anonymous": false,
      "inputs": [
        {
          "indexed": false,
          "internalType": "uint256",
          "name": "_orderID",
          "type": "uint256"
        },
        {
          "indexed": false,
          "internalType": "address",
          "name": "_counterparty",
          "type": "address"
        }
      ],
      "name": "orderOutOfCompliance",
      "type": "event"
    },
    {
      "anonymous": false,
      "inputs": [
        {
          "indexed": false,
          "internalType": "uint256",
          "name": "_orderID",
          "type": "uint256"
        },
        {
          "indexed": false,
          "internalType": "address",
          "name": "_counterparty",
          "type": "address"
        }
      ],
      "name": "orderShipped",
      "type": "event"
    },
    {
      "anonymous": false,
      "inputs": [
        {
          "indexed": false,
          "internalType": "uint256",
          "name": "_orderID",
          "type": "uint256"
        },
        {
          "indexed": false,
          "internalType": "address",
          "name": "_counterparty",
          "type": "address"
        }
      ],
      "name": "orderStored",
      "type": "event"
    },
    {
      "constant": true,
      "inputs": [],
      "name": "orderCount",
      "outputs": [
        {
          "internalType": "uint256",
          "name": "",
          "type": "uint256"
        }
      ],
      "payable": false,
      "stateMutability": "view",
      "type": "function"
    },
    {
      "constant": true,
      "inputs": [
        {
          "internalType": "uint256",
          "name": "",
          "type": "uint256"
        }
      ],
      "name": "orders",
      "outputs": [
        {
          "internalType": "uint256",
          "name": "orderID",
          "type": "uint256"
        },
        {
          "internalType": "uint256",
          "name": "numberOfUpdate",
          "type": "uint256"
        },
        {
          "internalType": "string",
          "name": "barcode",
          "type": "string"
        },
        {
          "internalType": "address",
          "name": "initiatingCounterparty",
          "type": "address"
        },
        {
          "internalType": "string",
          "name": "productsList",
          "type": "string"
        },
        {
          "internalType": "int256",
          "name": "temperatureMinimal",
          "type": "int256"
        },
        {
          "internalType": "int256",
          "name": "temperatureMaximal",
          "type": "int256"
        },
        {
          "internalType": "uint256",
          "name": "expirationDate",
          "type": "uint256"
        },
        {
          "internalType": "string",
          "name": "finalDestination",
          "type": "string"
        }
      ],
      "payable": false,
      "stateMutability": "view",
      "type": "function"
    },
    {
      "constant": false,
      "inputs": [
        {
          "internalType": "string",
          "name": "_barCode",
          "type": "string"
        },
        {
          "internalType": "string",
          "name": "_productList",
          "type": "string"
        },
        {
          "internalType": "int256",
          "name": "_min",
          "type": "int256"
        },
        {
          "internalType": "int256",
          "name": "_max",
          "type": "int256"
        },
        {
          "internalType": "uint256",
          "name": "_expDate",
          "type": "uint256"
        },
        {
          "internalType": "string",
          "name": "_fDestination",
          "type": "string"
        }
      ],
      "name": "createOrder",
      "outputs": [],
      "payable": false,
      "stateMutability": "nonpayable",
      "type": "function"
    },
    {
      "constant": false,
      "inputs": [
        {
          "internalType": "uint256",
          "name": "id",
          "type": "uint256"
        },
        {
          "internalType": "string",
          "name": "actualLoc",
          "type": "string"
        },
        {
          "internalType": "int256",
          "name": "actualTemp",
          "type": "int256"
        },
        {
          "internalType": "string",
          "name": "iotDevice",
          "type": "string"
        }
      ],
      "name": "storeOrder",
      "outputs": [],
      "payable": false,
      "stateMutability": "nonpayable",
      "type": "function"
    },
    {
      "constant": false,
      "inputs": [
        {
          "internalType": "uint256",
          "name": "id",
          "type": "uint256"
        },
        {
          "internalType": "string",
          "name": "actualLoc",
          "type": "string"
        },
        {
          "internalType": "int256",
          "name": "actualTemp",
          "type": "int256"
        },
        {
          "internalType": "string",
          "name": "iotDevice",
          "type": "string"
        },
        {
          "internalType": "string",
          "name": "nextDestination",
          "type": "string"
        }
      ],
      "name": "shipOrder",
      "outputs": [],
      "payable": false,
      "stateMutability": "nonpayable",
      "type": "function"
    },
    {
      "constant": true,
      "inputs": [
        {
          "internalType": "uint256",
          "name": "id",
          "type": "uint256"
        },
        {
          "internalType": "uint256",
          "name": "concernedStatusNumber",
          "type": "uint256"
        }
      ],
      "name": "getStatus",
      "outputs": [
        {
          "internalType": "enum SupChain.StateType",
          "name": "state",
          "type": "uint8"
        },
        {
          "internalType": "address",
          "name": "cParty",
          "type": "address"
        },
        {
          "internalType": "address",
          "name": "lParty",
          "type": "address"
        },
        {
          "internalType": "string",
          "name": "device",
          "type": "string"
        },
        {
          "internalType": "string",
          "name": "cLocation",
          "type": "string"
        },
        {
          "internalType": "int256",
          "name": "cTemp",
          "type": "int256"
        },
        {
          "internalType": "string",
          "name": "destination",
          "type": "string"
        }
      ],
      "payable": false,
      "stateMutability": "view",
      "type": "function"
    },
    {
      "constant": true,
      "inputs": [
        {
          "internalType": "uint256",
          "name": "id",
          "type": "uint256"
        }
      ],
      "name": "getOrder",
      "outputs": [
        {
          "internalType": "uint256",
          "name": "_id",
          "type": "uint256"
        },
        {
          "internalType": "uint256",
          "name": "updateNumber",
          "type": "uint256"
        },
        {
          "internalType": "string",
          "name": "barCode",
          "type": "string"
        },
        {
          "internalType": "address",
          "name": "iParty",
          "type": "address"
        },
        {
          "internalType": "string",
          "name": "products",
          "type": "string"
        },
        {
          "internalType": "int256",
          "name": "min",
          "type": "int256"
        },
        {
          "internalType": "int256",
          "name": "max",
          "type": "int256"
        },
        {
          "internalType": "uint256",
          "name": "expDate",
          "type": "uint256"
        },
        {
          "internalType": "string",
          "name": "fDestination",
          "type": "string"
        }
      ],
      "payable": false,
      "stateMutability": "view",
      "type": "function"
    },
    {
      "constant": true,
      "inputs": [],
      "name": "getOrderLength",
      "outputs": [
        {
          "internalType": "uint256",
          "name": "length",
          "type": "uint256"
        }
      ],
      "payable": false,
      "stateMutability": "view",
      "type": "function"
    },
    {
      "constant": true,
      "inputs": [
        {
          "internalType": "uint256",
          "name": "id",
          "type": "uint256"
        }
      ],
      "name": "getOrderNumberOfUpdate",
      "outputs": [
        {
          "internalType": "uint256",
          "name": "numberUpdate",
          "type": "uint256"
        }
      ],
      "payable": false,
      "stateMutability": "view",
      "type": "function"
    },
    {
      "constant": true,
      "inputs": [
        {
          "internalType": "uint256",
          "name": "id",
          "type": "uint256"
        }
      ],
      "name": "getBarcode",
      "outputs": [
        {
          "internalType": "string",
          "name": "barCode",
          "type": "string"
        }
      ],
      "payable": false,
      "stateMutability": "view",
      "type": "function"
    },
    {
      "constant": true,
      "inputs": [
        {
          "internalType": "uint256",
          "name": "id",
          "type": "uint256"
        }
      ],
      "name": "getInitiatingCounterpary",
      "outputs": [
        {
          "internalType": "address",
          "name": "iParty",
          "type": "address"
        }
      ],
      "payable": false,
      "stateMutability": "view",
      "type": "function"
    },
    {
      "constant": true,
      "inputs": [
        {
          "internalType": "uint256",
          "name": "id",
          "type": "uint256"
        }
      ],
      "name": "getProductList",
      "outputs": [
        {
          "internalType": "string",
          "name": "products",
          "type": "string"
        }
      ],
      "payable": false,
      "stateMutability": "view",
      "type": "function"
    },
    {
      "constant": true,
      "inputs": [
        {
          "internalType": "uint256",
          "name": "id",
          "type": "uint256"
        }
      ],
      "name": "getMinTemp",
      "outputs": [
        {
          "internalType": "int256",
          "name": "minTemp",
          "type": "int256"
        }
      ],
      "payable": false,
      "stateMutability": "view",
      "type": "function"
    },
    {
      "constant": true,
      "inputs": [
        {
          "internalType": "uint256",
          "name": "id",
          "type": "uint256"
        }
      ],
      "name": "getMaxTemp",
      "outputs": [
        {
          "internalType": "int256",
          "name": "maxTemp",
          "type": "int256"
        }
      ],
      "payable": false,
      "stateMutability": "view",
      "type": "function"
    },
    {
      "constant": true,
      "inputs": [
        {
          "internalType": "uint256",
          "name": "id",
          "type": "uint256"
        }
      ],
      "name": "getExpiration",
      "outputs": [
        {
          "internalType": "uint256",
          "name": "expiration",
          "type": "uint256"
        }
      ],
      "payable": false,
      "stateMutability": "view",
      "type": "function"
    },
    {
      "constant": true,
      "inputs": [
        {
          "internalType": "uint256",
          "name": "id",
          "type": "uint256"
        }
      ],
      "name": "getLastDestination",
      "outputs": [
        {
          "internalType": "string",
          "name": "lastDestination",
          "type": "string"
        }
      ],
      "payable": false,
      "stateMutability": "view",
      "type": "function"
    },
    {
      "constant": true,
      "inputs": [
        {
          "internalType": "uint256",
          "name": "id",
          "type": "uint256"
        },
        {
          "internalType": "uint256",
          "name": "concernedStatusNumber",
          "type": "uint256"
        }
      ],
      "name": "getState",
      "outputs": [
        {
          "internalType": "enum SupChain.StateType",
          "name": "state",
          "type": "uint8"
        }
      ],
      "payable": false,
      "stateMutability": "view",
      "type": "function"
    },
    {
      "constant": true,
      "inputs": [
        {
          "internalType": "uint256",
          "name": "id",
          "type": "uint256"
        },
        {
          "internalType": "uint256",
          "name": "concernedStatusNumber",
          "type": "uint256"
        }
      ],
      "name": "getCurrentCounterpary",
      "outputs": [
        {
          "internalType": "address",
          "name": "cParty",
          "type": "address"
        }
      ],
      "payable": false,
      "stateMutability": "view",
      "type": "function"
    },
    {
      "constant": true,
      "inputs": [
        {
          "internalType": "uint256",
          "name": "id",
          "type": "uint256"
        },
        {
          "internalType": "uint256",
          "name": "concernedStatusNumber",
          "type": "uint256"
        }
      ],
      "name": "getPreviousCounterpary",
      "outputs": [
        {
          "internalType": "address",
          "name": "pParty",
          "type": "address"
        }
      ],
      "payable": false,
      "stateMutability": "view",
      "type": "function"
    },
    {
      "constant": true,
      "inputs": [
        {
          "internalType": "uint256",
          "name": "id",
          "type": "uint256"
        },
        {
          "internalType": "uint256",
          "name": "concernedStatusNumber",
          "type": "uint256"
        }
      ],
      "name": "getDevice",
      "outputs": [
        {
          "internalType": "string",
          "name": "device",
          "type": "string"
        }
      ],
      "payable": false,
      "stateMutability": "view",
      "type": "function"
    },
    {
      "constant": true,
      "inputs": [
        {
          "internalType": "uint256",
          "name": "id",
          "type": "uint256"
        },
        {
          "internalType": "uint256",
          "name": "concernedStatusNumber",
          "type": "uint256"
        }
      ],
      "name": "getCurrentLocation",
      "outputs": [
        {
          "internalType": "string",
          "name": "cLocation",
          "type": "string"
        }
      ],
      "payable": false,
      "stateMutability": "view",
      "type": "function"
    },
    {
      "constant": true,
      "inputs": [
        {
          "internalType": "uint256",
          "name": "id",
          "type": "uint256"
        },
        {
          "internalType": "uint256",
          "name": "concernedStatusNumber",
          "type": "uint256"
        }
      ],
      "name": "getCurrentTemperature",
      "outputs": [
        {
          "internalType": "int256",
          "name": "cTemp",
          "type": "int256"
        }
      ],
      "payable": false,
      "stateMutability": "view",
      "type": "function"
    },
    {
      "constant": true,
      "inputs": [
        {
          "internalType": "uint256",
          "name": "id",
          "type": "uint256"
        },
        {
          "internalType": "uint256",
          "name": "concernedStatusNumber",
          "type": "uint256"
        }
      ],
      "name": "getNextDestination",
      "outputs": [
        {
          "internalType": "string",
          "name": "nDestination",
          "type": "string"
        }
      ],
      "payable": false,
      "stateMutability": "view",
      "type": "function"
    },
    {
      "constant": true,
      "inputs": [
        {
          "internalType": "uint256",
          "name": "id",
          "type": "uint256"
        },
        {
          "internalType": "uint256",
          "name": "concernedStatusNumber",
          "type": "uint256"
        }
      ],
      "name": "getDate",
      "outputs": [
        {
          "internalType": "uint256",
          "name": "date",
          "type": "uint256"
        }
      ],
      "payable": false,
      "stateMutability": "view",
      "type": "function"
    }
  ],
  "bytecode": "0x60806040526000805534801561001457600080fd5b50615a1480620000256000396000f3fe608060405234801561001057600080fd5b50600436106101585760003560e01c80638b57081e116100c3578063a745da651161007c578063a745da6514610cee578063a85c38ef14610ef9578063ce7c5c1d146110ce578063ce956e4614611146578063d09ef241146111f7578063e7db161b146113cc57610158565b80638b57081e1461098e5780638f71a32a14610af45780639a37dea414610b365780639d4971b714610bdd578063a05b775f14610bfb578063a62a239514610c3d57610158565b8063410cdcba11610115578063410cdcba14610413578063443ea906146104555780636466302e146104a157806368f213b4146105485780636a3798941461058a5780636cd421411461078757610158565b80631e2518cf1461015d5780632397cf16146101cb5780632453ffa81461027c5780632f9da5f01461029a5780633636e3b1146102f457806338d7d5501461039b575b600080fd5b6101896004803603602081101561017357600080fd5b8101908080359060200190929190505050611418565b604051808273ffffffffffffffffffffffffffffffffffffffff1673ffffffffffffffffffffffffffffffffffffffff16815260200191505060405180910390f35b610201600480360360408110156101e157600080fd5b8101908080359060200190929190803590602001909291905050506116cc565b6040518080602001828103825283818151815260200191508051906020019080838360005b83811015610241578082015181840152602081019050610226565b50505050905090810190601f16801561026e5780820380516001836020036101000a031916815260200191505b509250505060405180910390f35b6102846119f4565b6040518082815260200191505060405180910390f35b6102d0600480360360408110156102b057600080fd5b8101908080359060200190929190803590602001909291905050506119fa565b604051808260048111156102e057fe5b60ff16815260200191505060405180910390f35b6103206004803603602081101561030a57600080fd5b8101908080359060200190929190505050611d22565b6040518080602001828103825283818151815260200191508051906020019080838360005b83811015610360578082015181840152602081019050610345565b50505050905090810190601f16801561038d5780820380516001836020036101000a031916815260200191505b509250505060405180910390f35b6103d1600480360360408110156103b157600080fd5b810190808035906020019092919080359060200190929190505050611fd6565b604051808273ffffffffffffffffffffffffffffffffffffffff1673ffffffffffffffffffffffffffffffffffffffff16815260200191505060405180910390f35b61043f6004803603602081101561042957600080fd5b81019080803590602001909291905050506122fe565b6040518082815260200191505060405180910390f35b61048b6004803603604081101561046b57600080fd5b8101908080359060200190929190803590602001909291905050506125b2565b6040518082815260200191505060405180910390f35b6104cd600480360360208110156104b757600080fd5b81019080803590602001909291905050506128da565b6040518080602001828103825283818151815260200191508051906020019080838360005b8381101561050d5780820151818401526020810190506104f2565b50505050905090810190601f16801561053a5780820380516001836020036101000a031916815260200191505b509250505060405180910390f35b6105746004803603602081101561055e57600080fd5b8101908080359060200190929190505050612b8f565b6040518082815260200191505060405180910390f35b610785600480360360a08110156105a057600080fd5b8101908080359060200190929190803590602001906401000000008111156105c757600080fd5b8201836020820111156105d957600080fd5b803590602001918460018302840111640100000000831117156105fb57600080fd5b91908080601f016020809104026020016040519081016040528093929190818152602001838380828437600081840152601f19601f820116905080830192505050505050509192919290803590602001909291908035906020019064010000000081111561066857600080fd5b82018360208201111561067a57600080fd5b8035906020019184600183028401116401000000008311171561069c57600080fd5b91908080601f016020809104026020016040519081016040528093929190818152602001838380828437600081840152601f19601f820116905080830192505050505050509192919290803590602001906401000000008111156106ff57600080fd5b82018360208201111561071157600080fd5b8035906020019184600183028401116401000000008311171561073357600080fd5b91908080601f016020809104026020016040519081016040528093929190818152602001838380828437600081840152601f19601f820116905080830192505050505050509192919290505050612e43565b005b61098c600480360360c081101561079d57600080fd5b81019080803590602001906401000000008111156107ba57600080fd5b8201836020820111156107cc57600080fd5b803590602001918460018302840111640100000000831117156107ee57600080fd5b91908080601f016020809104026020016040519081016040528093929190818152602001838380828437600081840152601f19601f8201169050808301925050505050505091929192908035906020019064010000000081111561085157600080fd5b82018360208201111561086357600080fd5b8035906020019184600183028401116401000000008311171561088557600080fd5b91908080601f016020809104026020016040519081016040528093929190818152602001838380828437600081840152601f19601f8201169050808301925050505050505091929192908035906020019092919080359060200190929190803590602001909291908035906020019064010000000081111561090657600080fd5b82018360208201111561091857600080fd5b8035906020019184600183028401116401000000008311171561093a57600080fd5b91908080601f016020809104026020016040519081016040528093929190818152602001838380828437600081840152601f19601f8201169050808301925050505050505091929192905050506130e0565b005b610af2600480360360808110156109a457600080fd5b8101908080359060200190929190803590602001906401000000008111156109cb57600080fd5b8201836020820111156109dd57600080fd5b803590602001918460018302840111640100000000831117156109ff57600080fd5b91908080601f016020809104026020016040519081016040528093929190818152602001838380828437600081840152601f19601f8201169050808301925050505050505091929192908035906020019092919080359060200190640100000000811115610a6c57600080fd5b820183602082011115610a7e57600080fd5b80359060200191846001830284011164010000000083111715610aa057600080fd5b91908080601f016020809104026020016040519081016040528093929190818152602001838380828437600081840152601f19601f8201169050808301925050505050505091929192905050506134e2565b005b610b2060048036036020811015610b0a57600080fd5b810190808035906020019092919050505061378d565b6040518082815260200191505060405180910390f35b610b6260048036036020811015610b4c57600080fd5b8101908080359060200190929190505050613a41565b6040518080602001828103825283818151815260200191508051906020019080838360005b83811015610ba2578082015181840152602081019050610b87565b50505050905090810190601f168015610bcf5780820380516001836020036101000a031916815260200191505b509250505060405180910390f35b610be5613cf5565b6040518082815260200191505060405180910390f35b610c2760048036036020811015610c1157600080fd5b8101908080359060200190929190505050613d07565b6040518082815260200191505060405180910390f35b610c7360048036036040811015610c5357600080fd5b810190808035906020019092919080359060200190929190505050613fbb565b6040518080602001828103825283818151815260200191508051906020019080838360005b83811015610cb3578082015181840152602081019050610c98565b50505050905090810190601f168015610ce05780820380516001836020036101000a031916815260200191505b509250505060405180910390f35b610d2460048036036040811015610d0457600080fd5b8101908080359060200190929190803590602001909291905050506142e3565b60405180886004811115610d3457fe5b60ff1681526020018773ffffffffffffffffffffffffffffffffffffffff1673ffffffffffffffffffffffffffffffffffffffff1681526020018673ffffffffffffffffffffffffffffffffffffffff1673ffffffffffffffffffffffffffffffffffffffff168152602001806020018060200185815260200180602001848103845288818151815260200191508051906020019080838360005b83811015610dea578082015181840152602081019050610dcf565b50505050905090810190601f168015610e175780820380516001836020036101000a031916815260200191505b50848103835287818151815260200191508051906020019080838360005b83811015610e50578082015181840152602081019050610e35565b50505050905090810190601f168015610e7d5780820380516001836020036101000a031916815260200191505b50848103825285818151815260200191508051906020019080838360005b83811015610eb6578082015181840152602081019050610e9b565b50505050905090810190601f168015610ee35780820380516001836020036101000a031916815260200191505b509a505050505050505050505060405180910390f35b610f2560048036036020811015610f0f57600080fd5b810190808035906020019092919050505061464e565b604051808a8152602001898152602001806020018873ffffffffffffffffffffffffffffffffffffffff1673ffffffffffffffffffffffffffffffffffffffff168152602001806020018781526020018681526020018581526020018060200184810384528b818151815260200191508051906020019080838360005b83811015610fbd578082015181840152602081019050610fa2565b50505050905090810190601f168015610fea5780820380516001836020036101000a031916815260200191505b50848103835289818151815260200191508051906020019080838360005b83811015611023578082015181840152602081019050611008565b50505050905090810190601f1680156110505780820380516001836020036101000a031916815260200191505b50848103825285818151815260200191508051906020019080838360005b8381101561108957808201518184015260208101905061106e565b50505050905090810190601f1680156110b65780820380516001836020036101000a031916815260200191505b509c5050505050505050505050505060405180910390f35b611104600480360360408110156110e457600080fd5b810190808035906020019092919080359060200190929190505050614891565b604051808273ffffffffffffffffffffffffffffffffffffffff1673ffffffffffffffffffffffffffffffffffffffff16815260200191505060405180910390f35b61117c6004803603604081101561115c57600080fd5b810190808035906020019092919080359060200190929190505050614bb9565b6040518080602001828103825283818151815260200191508051906020019080838360005b838110156111bc5780820151818401526020810190506111a1565b50505050905090810190601f1680156111e95780820380516001836020036101000a031916815260200191505b509250505060405180910390f35b6112236004803603602081101561120d57600080fd5b8101908080359060200190929190505050614ee1565b604051808a8152602001898152602001806020018873ffffffffffffffffffffffffffffffffffffffff1673ffffffffffffffffffffffffffffffffffffffff168152602001806020018781526020018681526020018581526020018060200184810384528b818151815260200191508051906020019080838360005b838110156112bb5780820151818401526020810190506112a0565b50505050905090810190601f1680156112e85780820380516001836020036101000a031916815260200191505b50848103835289818151815260200191508051906020019080838360005b83811015611321578082015181840152602081019050611306565b50505050905090810190601f16801561134e5780820380516001836020036101000a031916815260200191505b50848103825285818151815260200191508051906020019080838360005b8381101561138757808201518184015260208101905061136c565b50505050905090810190601f1680156113b45780820380516001836020036101000a031916815260200191505b509c5050505050505050505050505060405180910390f35b611402600480360360408110156113e257600080fd5b8101908080359060200190929190803590602001909291905050506151e7565b6040518082815260200191505060405180910390f35b600061142261585c565b6002838154811061142f57fe5b90600052602060002090600a0201604051806101200160405290816000820154815260200160018201548152602001600282018054600181600116156101000203166002900480601f0160208091040260200160405190810160405280929190818152602001828054600181600116156101000203166002900480156114f65780601f106114cb576101008083540402835291602001916114f6565b820191906000526020600020905b8154815290600101906020018083116114d957829003601f168201915b505050505081526020016003820160009054906101000a900473ffffffffffffffffffffffffffffffffffffffff1673ffffffffffffffffffffffffffffffffffffffff1673ffffffffffffffffffffffffffffffffffffffff168152602001600482018054600181600116156101000203166002900480601f0160208091040260200160405190810160405280929190818152602001828054600181600116156101000203166002900480156115ee5780601f106115c3576101008083540402835291602001916115ee565b820191906000526020600020905b8154815290600101906020018083116115d157829003601f168201915b50505050508152602001600582015481526020016006820154815260200160078201548152602001600882018054600181600116156101000203166002900480601f0160208091040260200160405190810160405280929190818152602001828054600181600116156101000203166002900480156116ae5780601f10611683576101008083540402835291602001916116ae565b820191906000526020600020905b81548152906001019060200180831161169157829003601f168201915b50505050508152505090506000816060015190508092505050919050565b60606116d66158be565b600284815481106116e357fe5b90600052602060002090600a02016009016000848152602001908152602001600020604051806101000160405290816000820160009054906101000a900460ff16600481111561172f57fe5b600481111561173a57fe5b81526020016000820160019054906101000a900473ffffffffffffffffffffffffffffffffffffffff1673ffffffffffffffffffffffffffffffffffffffff1673ffffffffffffffffffffffffffffffffffffffff1681526020016001820160009054906101000a900473ffffffffffffffffffffffffffffffffffffffff1673ffffffffffffffffffffffffffffffffffffffff1673ffffffffffffffffffffffffffffffffffffffff168152602001600282018054600181600116156101000203166002900480601f0160208091040260200160405190810160405280929190818152602001828054600181600116156101000203166002900480156118835780601f1061185857610100808354040283529160200191611883565b820191906000526020600020905b81548152906001019060200180831161186657829003601f168201915b50505050508152602001600382018054600181600116156101000203166002900480601f0160208091040260200160405190810160405280929190818152602001828054600181600116156101000203166002900480156119255780601f106118fa57610100808354040283529160200191611925565b820191906000526020600020905b81548152906001019060200180831161190857829003601f168201915b5050505050815260200160048201548152602001600582018054600181600116156101000203166002900480601f0160208091040260200160405190810160405280929190818152602001828054600181600116156101000203166002900480156119d15780601f106119a6576101008083540402835291602001916119d1565b820191906000526020600020905b8154815290600101906020018083116119b457829003601f168201915b505050505081526020016006820154815250509050806080015191505092915050565b60005481565b6000611a046158be565b60028481548110611a1157fe5b90600052602060002090600a02016009016000848152602001908152602001600020604051806101000160405290816000820160009054906101000a900460ff166004811115611a5d57fe5b6004811115611a6857fe5b81526020016000820160019054906101000a900473ffffffffffffffffffffffffffffffffffffffff1673ffffffffffffffffffffffffffffffffffffffff1673ffffffffffffffffffffffffffffffffffffffff1681526020016001820160009054906101000a900473ffffffffffffffffffffffffffffffffffffffff1673ffffffffffffffffffffffffffffffffffffffff1673ffffffffffffffffffffffffffffffffffffffff168152602001600282018054600181600116156101000203166002900480601f016020809104026020016040519081016040528092919081815260200182805460018160011615610100020316600290048015611bb15780601f10611b8657610100808354040283529160200191611bb1565b820191906000526020600020905b815481529060010190602001808311611b9457829003601f168201915b50505050508152602001600382018054600181600116156101000203166002900480601f016020809104026020016040519081016040528092919081815260200182805460018160011615610100020316600290048015611c535780601f10611c2857610100808354040283529160200191611c53565b820191906000526020600020905b815481529060010190602001808311611c3657829003601f168201915b5050505050815260200160048201548152602001600582018054600181600116156101000203166002900480601f016020809104026020016040519081016040528092919081815260200182805460018160011615610100020316600290048015611cff5780601f10611cd457610100808354040283529160200191611cff565b820191906000526020600020905b815481529060010190602001808311611ce257829003601f168201915b505050505081526020016006820154815250509050806000015191505092915050565b6060611d2c61585c565b60028381548110611d3957fe5b90600052602060002090600a0201604051806101200160405290816000820154815260200160018201548152602001600282018054600181600116156101000203166002900480601f016020809104026020016040519081016040528092919081815260200182805460018160011615610100020316600290048015611e005780601f10611dd557610100808354040283529160200191611e00565b820191906000526020600020905b815481529060010190602001808311611de357829003601f168201915b505050505081526020016003820160009054906101000a900473ffffffffffffffffffffffffffffffffffffffff1673ffffffffffffffffffffffffffffffffffffffff1673ffffffffffffffffffffffffffffffffffffffff168152602001600482018054600181600116156101000203166002900480601f016020809104026020016040519081016040528092919081815260200182805460018160011615610100020316600290048015611ef85780601f10611ecd57610100808354040283529160200191611ef8565b820191906000526020600020905b815481529060010190602001808311611edb57829003601f168201915b50505050508152602001600582015481526020016006820154815260200160078201548152602001600882018054600181600116156101000203166002900480601f016020809104026020016040519081016040528092919081815260200182805460018160011615610100020316600290048015611fb85780601f10611f8d57610100808354040283529160200191611fb8565b820191906000526020600020905b815481529060010190602001808311611f9b57829003601f168201915b50505050508152505090506060816040015190508092505050919050565b6000611fe06158be565b60028481548110611fed57fe5b90600052602060002090600a02016009016000848152602001908152602001600020604051806101000160405290816000820160009054906101000a900460ff16600481111561203957fe5b600481111561204457fe5b81526020016000820160019054906101000a900473ffffffffffffffffffffffffffffffffffffffff1673ffffffffffffffffffffffffffffffffffffffff1673ffffffffffffffffffffffffffffffffffffffff1681526020016001820160009054906101000a900473ffffffffffffffffffffffffffffffffffffffff1673ffffffffffffffffffffffffffffffffffffffff1673ffffffffffffffffffffffffffffffffffffffff168152602001600282018054600181600116156101000203166002900480601f01602080910402602001604051908101604052809291908181526020018280546001816001161561010002031660029004801561218d5780601f106121625761010080835404028352916020019161218d565b820191906000526020600020905b81548152906001019060200180831161217057829003601f168201915b50505050508152602001600382018054600181600116156101000203166002900480601f01602080910402602001604051908101604052809291908181526020018280546001816001161561010002031660029004801561222f5780601f106122045761010080835404028352916020019161222f565b820191906000526020600020905b81548152906001019060200180831161221257829003601f168201915b5050505050815260200160048201548152602001600582018054600181600116156101000203166002900480601f0160208091040260200160405190810160405280929190818152602001828054600181600116156101000203166002900480156122db5780601f106122b0576101008083540402835291602001916122db565b820191906000526020600020905b8154815290600101906020018083116122be57829003601f168201915b505050505081526020016006820154815250509050806040015191505092915050565b600061230861585c565b6002838154811061231557fe5b90600052602060002090600a0201604051806101200160405290816000820154815260200160018201548152602001600282018054600181600116156101000203166002900480601f0160208091040260200160405190810160405280929190818152602001828054600181600116156101000203166002900480156123dc5780601f106123b1576101008083540402835291602001916123dc565b820191906000526020600020905b8154815290600101906020018083116123bf57829003601f168201915b505050505081526020016003820160009054906101000a900473ffffffffffffffffffffffffffffffffffffffff1673ffffffffffffffffffffffffffffffffffffffff1673ffffffffffffffffffffffffffffffffffffffff168152602001600482018054600181600116156101000203166002900480601f0160208091040260200160405190810160405280929190818152602001828054600181600116156101000203166002900480156124d45780601f106124a9576101008083540402835291602001916124d4565b820191906000526020600020905b8154815290600101906020018083116124b757829003601f168201915b50505050508152602001600582015481526020016006820154815260200160078201548152602001600882018054600181600116156101000203166002900480601f0160208091040260200160405190810160405280929190818152602001828054600181600116156101000203166002900480156125945780601f1061256957610100808354040283529160200191612594565b820191906000526020600020905b81548152906001019060200180831161257757829003601f168201915b505050505081525050905060008160a0015190508092505050919050565b60006125bc6158be565b600284815481106125c957fe5b90600052602060002090600a02016009016000848152602001908152602001600020604051806101000160405290816000820160009054906101000a900460ff16600481111561261557fe5b600481111561262057fe5b81526020016000820160019054906101000a900473ffffffffffffffffffffffffffffffffffffffff1673ffffffffffffffffffffffffffffffffffffffff1673ffffffffffffffffffffffffffffffffffffffff1681526020016001820160009054906101000a900473ffffffffffffffffffffffffffffffffffffffff1673ffffffffffffffffffffffffffffffffffffffff1673ffffffffffffffffffffffffffffffffffffffff168152602001600282018054600181600116156101000203166002900480601f0160208091040260200160405190810160405280929190818152602001828054600181600116156101000203166002900480156127695780601f1061273e57610100808354040283529160200191612769565b820191906000526020600020905b81548152906001019060200180831161274c57829003601f168201915b50505050508152602001600382018054600181600116156101000203166002900480601f01602080910402602001604051908101604052809291908181526020018280546001816001161561010002031660029004801561280b5780601f106127e05761010080835404028352916020019161280b565b820191906000526020600020905b8154815290600101906020018083116127ee57829003601f168201915b5050505050815260200160048201548152602001600582018054600181600116156101000203166002900480601f0160208091040260200160405190810160405280929190818152602001828054600181600116156101000203166002900480156128b75780601f1061288c576101008083540402835291602001916128b7565b820191906000526020600020905b81548152906001019060200180831161289a57829003601f168201915b5050505050815260200160068201548152505090508060e0015191505092915050565b60606128e461585c565b600283815481106128f157fe5b90600052602060002090600a0201604051806101200160405290816000820154815260200160018201548152602001600282018054600181600116156101000203166002900480601f0160208091040260200160405190810160405280929190818152602001828054600181600116156101000203166002900480156129b85780601f1061298d576101008083540402835291602001916129b8565b820191906000526020600020905b81548152906001019060200180831161299b57829003601f168201915b505050505081526020016003820160009054906101000a900473ffffffffffffffffffffffffffffffffffffffff1673ffffffffffffffffffffffffffffffffffffffff1673ffffffffffffffffffffffffffffffffffffffff168152602001600482018054600181600116156101000203166002900480601f016020809104026020016040519081016040528092919081815260200182805460018160011615610100020316600290048015612ab05780601f10612a8557610100808354040283529160200191612ab0565b820191906000526020600020905b815481529060010190602001808311612a9357829003601f168201915b50505050508152602001600582015481526020016006820154815260200160078201548152602001600882018054600181600116156101000203166002900480601f016020809104026020016040519081016040528092919081815260200182805460018160011615610100020316600290048015612b705780601f10612b4557610100808354040283529160200191612b70565b820191906000526020600020905b815481529060010190602001808311612b5357829003601f168201915b5050505050815250509050606081610100015190508092505050919050565b6000612b9961585c565b60028381548110612ba657fe5b90600052602060002090600a0201604051806101200160405290816000820154815260200160018201548152602001600282018054600181600116156101000203166002900480601f016020809104026020016040519081016040528092919081815260200182805460018160011615610100020316600290048015612c6d5780601f10612c4257610100808354040283529160200191612c6d565b820191906000526020600020905b815481529060010190602001808311612c5057829003601f168201915b505050505081526020016003820160009054906101000a900473ffffffffffffffffffffffffffffffffffffffff1673ffffffffffffffffffffffffffffffffffffffff1673ffffffffffffffffffffffffffffffffffffffff168152602001600482018054600181600116156101000203166002900480601f016020809104026020016040519081016040528092919081815260200182805460018160011615610100020316600290048015612d655780601f10612d3a57610100808354040283529160200191612d65565b820191906000526020600020905b815481529060010190602001808311612d4857829003601f168201915b50505050508152602001600582015481526020016006820154815260200160078201548152602001600882018054600181600116156101000203166002900480601f016020809104026020016040519081016040528092919081815260200182805460018160011615610100020316600290048015612e255780601f10612dfa57610100808354040283529160200191612e25565b820191906000526020600020905b815481529060010190602001808311612e0857829003601f168201915b50505050508152505090506000816020015190508092505050919050565b6000612e52868686600161550f565b9050604051806101000160405280826004811115612e6c57fe5b81526020013373ffffffffffffffffffffffffffffffffffffffff16815260200160028881548110612e9a57fe5b90600052602060002090600a0201600901600060028a81548110612eba57fe5b90600052602060002090600a020160010154815260200190815260200160002060010160009054906101000a900473ffffffffffffffffffffffffffffffffffffffff1673ffffffffffffffffffffffffffffffffffffffff1681526020018481526020018681526020018581526020018381526020014281525060028781548110612f4257fe5b90600052602060002090600a02016009016000600160028a81548110612f6457fe5b90600052602060002090600a02016001015401815260200190815260200160002060008201518160000160006101000a81548160ff02191690836004811115612fa957fe5b021790555060208201518160000160016101000a81548173ffffffffffffffffffffffffffffffffffffffff021916908373ffffffffffffffffffffffffffffffffffffffff16021790555060408201518160010160006101000a81548173ffffffffffffffffffffffffffffffffffffffff021916908373ffffffffffffffffffffffffffffffffffffffff160217905550606082015181600201908051906020019061305892919061593a565b50608082015181600301908051906020019061307592919061593a565b5060a0820151816004015560c082015181600501908051906020019061309c92919061593a565b5060e08201518160060155905050600286815481106130b757fe5b90600052602060002090600a020160010160008154809291906001019190505550505050505050565b6130e861585c565b6040518061012001604052806000548152602001600081526020018881526020013373ffffffffffffffffffffffffffffffffffffffff1681526020018781526020018681526020018581526020018481526020018381525090506002819080600181540180825580915050906001820390600052602060002090600a020160009091929091909150600082015181600001556020820151816001015560408201518160020190805190602001906131a192919061593a565b5060608201518160030160006101000a81548173ffffffffffffffffffffffffffffffffffffffff021916908373ffffffffffffffffffffffffffffffffffffffff160217905550608082015181600401908051906020019061320592919061593a565b5060a0820151816005015560c0820151816006015560e0820151816007015561010082015181600801908051906020019061324192919061593a565b505050506040518061010001604052806000600481111561325e57fe5b81526020013373ffffffffffffffffffffffffffffffffffffffff1681526020013373ffffffffffffffffffffffffffffffffffffffff16815260200160405180602001604052806000815250815260200160405180602001604052806000815250815260200160008152602001604051806020016040528060008152508152602001428152506002600054815481106132f457fe5b90600052602060002090600a0201600901600060026000548154811061331657fe5b90600052602060002090600a020160010154815260200190815260200160002060008201518160000160006101000a81548160ff0219169083600481111561335a57fe5b021790555060208201518160000160016101000a81548173ffffffffffffffffffffffffffffffffffffffff021916908373ffffffffffffffffffffffffffffffffffffffff16021790555060408201518160010160006101000a81548173ffffffffffffffffffffffffffffffffffffffff021916908373ffffffffffffffffffffffffffffffffffffffff160217905550606082015181600201908051906020019061340992919061593a565b50608082015181600301908051906020019061342692919061593a565b5060a0820151816004015560c082015181600501908051906020019061344d92919061593a565b5060e082015181600601559050507f46b6c396e92cc7696aace08a67609122540b161e57d4bdbb9cd4c5d19e6c85e760005433604051808381526020018273ffffffffffffffffffffffffffffffffffffffff1673ffffffffffffffffffffffffffffffffffffffff1681526020019250505060405180910390a1600080815480929190600101919050555050505050505050565b60006134f1858585600161550f565b905060405180610100016040528082600481111561350b57fe5b81526020013373ffffffffffffffffffffffffffffffffffffffff1681526020016002878154811061353957fe5b90600052602060002090600a020160090160006002898154811061355957fe5b90600052602060002090600a020160010154815260200190815260200160002060010160009054906101000a900473ffffffffffffffffffffffffffffffffffffffff1673ffffffffffffffffffffffffffffffffffffffff16815260200183815260200185815260200184815260200160405180602001604052806000815250815260200142815250600286815481106135f057fe5b90600052602060002090600a0201600901600060016002898154811061361257fe5b90600052602060002090600a02016001015401815260200190815260200160002060008201518160000160006101000a81548160ff0219169083600481111561365757fe5b021790555060208201518160000160016101000a81548173ffffffffffffffffffffffffffffffffffffffff021916908373ffffffffffffffffffffffffffffffffffffffff16021790555060408201518160010160006101000a81548173ffffffffffffffffffffffffffffffffffffffff021916908373ffffffffffffffffffffffffffffffffffffffff160217905550606082015181600201908051906020019061370692919061593a565b50608082015181600301908051906020019061372392919061593a565b5060a0820151816004015560c082015181600501908051906020019061374a92919061593a565b5060e082015181600601559050506002858154811061376557fe5b90600052602060002090600a0201600101600081548092919060010191905055505050505050565b600061379761585c565b600283815481106137a457fe5b90600052602060002090600a0201604051806101200160405290816000820154815260200160018201548152602001600282018054600181600116156101000203166002900480601f01602080910402602001604051908101604052809291908181526020018280546001816001161561010002031660029004801561386b5780601f106138405761010080835404028352916020019161386b565b820191906000526020600020905b81548152906001019060200180831161384e57829003601f168201915b505050505081526020016003820160009054906101000a900473ffffffffffffffffffffffffffffffffffffffff1673ffffffffffffffffffffffffffffffffffffffff1673ffffffffffffffffffffffffffffffffffffffff168152602001600482018054600181600116156101000203166002900480601f0160208091040260200160405190810160405280929190818152602001828054600181600116156101000203166002900480156139635780601f1061393857610100808354040283529160200191613963565b820191906000526020600020905b81548152906001019060200180831161394657829003601f168201915b50505050508152602001600582015481526020016006820154815260200160078201548152602001600882018054600181600116156101000203166002900480601f016020809104026020016040519081016040528092919081815260200182805460018160011615610100020316600290048015613a235780601f106139f857610100808354040283529160200191613a23565b820191906000526020600020905b815481529060010190602001808311613a0657829003601f168201915b505050505081525050905060008160c0015190508092505050919050565b6060613a4b61585c565b60028381548110613a5857fe5b90600052602060002090600a0201604051806101200160405290816000820154815260200160018201548152602001600282018054600181600116156101000203166002900480601f016020809104026020016040519081016040528092919081815260200182805460018160011615610100020316600290048015613b1f5780601f10613af457610100808354040283529160200191613b1f565b820191906000526020600020905b815481529060010190602001808311613b0257829003601f168201915b505050505081526020016003820160009054906101000a900473ffffffffffffffffffffffffffffffffffffffff1673ffffffffffffffffffffffffffffffffffffffff1673ffffffffffffffffffffffffffffffffffffffff168152602001600482018054600181600116156101000203166002900480601f016020809104026020016040519081016040528092919081815260200182805460018160011615610100020316600290048015613c175780601f10613bec57610100808354040283529160200191613c17565b820191906000526020600020905b815481529060010190602001808311613bfa57829003601f168201915b50505050508152602001600582015481526020016006820154815260200160078201548152602001600882018054600181600116156101000203166002900480601f016020809104026020016040519081016040528092919081815260200182805460018160011615610100020316600290048015613cd75780601f10613cac57610100808354040283529160200191613cd7565b820191906000526020600020905b815481529060010190602001808311613cba57829003601f168201915b50505050508152505090506060816080015190508092505050919050565b60008060028054905090508091505090565b6000613d1161585c565b60028381548110613d1e57fe5b90600052602060002090600a0201604051806101200160405290816000820154815260200160018201548152602001600282018054600181600116156101000203166002900480601f016020809104026020016040519081016040528092919081815260200182805460018160011615610100020316600290048015613de55780601f10613dba57610100808354040283529160200191613de5565b820191906000526020600020905b815481529060010190602001808311613dc857829003601f168201915b505050505081526020016003820160009054906101000a900473ffffffffffffffffffffffffffffffffffffffff1673ffffffffffffffffffffffffffffffffffffffff1673ffffffffffffffffffffffffffffffffffffffff168152602001600482018054600181600116156101000203166002900480601f016020809104026020016040519081016040528092919081815260200182805460018160011615610100020316600290048015613edd5780601f10613eb257610100808354040283529160200191613edd565b820191906000526020600020905b815481529060010190602001808311613ec057829003601f168201915b50505050508152602001600582015481526020016006820154815260200160078201548152602001600882018054600181600116156101000203166002900480601f016020809104026020016040519081016040528092919081815260200182805460018160011615610100020316600290048015613f9d5780601f10613f7257610100808354040283529160200191613f9d565b820191906000526020600020905b815481529060010190602001808311613f8057829003601f168201915b505050505081525050905060008160e0015190508092505050919050565b6060613fc56158be565b60028481548110613fd257fe5b90600052602060002090600a02016009016000848152602001908152602001600020604051806101000160405290816000820160009054906101000a900460ff16600481111561401e57fe5b600481111561402957fe5b81526020016000820160019054906101000a900473ffffffffffffffffffffffffffffffffffffffff1673ffffffffffffffffffffffffffffffffffffffff1673ffffffffffffffffffffffffffffffffffffffff1681526020016001820160009054906101000a900473ffffffffffffffffffffffffffffffffffffffff1673ffffffffffffffffffffffffffffffffffffffff1673ffffffffffffffffffffffffffffffffffffffff168152602001600282018054600181600116156101000203166002900480601f0160208091040260200160405190810160405280929190818152602001828054600181600116156101000203166002900480156141725780601f1061414757610100808354040283529160200191614172565b820191906000526020600020905b81548152906001019060200180831161415557829003601f168201915b50505050508152602001600382018054600181600116156101000203166002900480601f0160208091040260200160405190810160405280929190818152602001828054600181600116156101000203166002900480156142145780601f106141e957610100808354040283529160200191614214565b820191906000526020600020905b8154815290600101906020018083116141f757829003601f168201915b5050505050815260200160048201548152602001600582018054600181600116156101000203166002900480601f0160208091040260200160405190810160405280929190818152602001828054600181600116156101000203166002900480156142c05780601f10614295576101008083540402835291602001916142c0565b820191906000526020600020905b8154815290600101906020018083116142a357829003601f168201915b505050505081526020016006820154815250509050806060015191505092915050565b6000806000606080600060606142f76158be565b60028a8154811061430457fe5b90600052602060002090600a020160090160008a8152602001908152602001600020604051806101000160405290816000820160009054906101000a900460ff16600481111561435057fe5b600481111561435b57fe5b81526020016000820160019054906101000a900473ffffffffffffffffffffffffffffffffffffffff1673ffffffffffffffffffffffffffffffffffffffff1673ffffffffffffffffffffffffffffffffffffffff1681526020016001820160009054906101000a900473ffffffffffffffffffffffffffffffffffffffff1673ffffffffffffffffffffffffffffffffffffffff1673ffffffffffffffffffffffffffffffffffffffff168152602001600282018054600181600116156101000203166002900480601f0160208091040260200160405190810160405280929190818152602001828054600181600116156101000203166002900480156144a45780601f10614479576101008083540402835291602001916144a4565b820191906000526020600020905b81548152906001019060200180831161448757829003601f168201915b50505050508152602001600382018054600181600116156101000203166002900480601f0160208091040260200160405190810160405280929190818152602001828054600181600116156101000203166002900480156145465780601f1061451b57610100808354040283529160200191614546565b820191906000526020600020905b81548152906001019060200180831161452957829003601f168201915b5050505050815260200160048201548152602001600582018054600181600116156101000203166002900480601f0160208091040260200160405190810160405280929190818152602001828054600181600116156101000203166002900480156145f25780601f106145c7576101008083540402835291602001916145f2565b820191906000526020600020905b8154815290600101906020018083116145d557829003601f168201915b505050505081526020016006820154815250509050806000015181602001518260400151836060015184608001518560a001518660c0015183935082925080905097509750975097509750975097505092959891949750929550565b6002818154811061465b57fe5b90600052602060002090600a0201600091509050806000015490806001015490806002018054600181600116156101000203166002900480601f0160208091040260200160405190810160405280929190818152602001828054600181600116156101000203166002900480156147135780601f106146e857610100808354040283529160200191614713565b820191906000526020600020905b8154815290600101906020018083116146f657829003601f168201915b5050505050908060030160009054906101000a900473ffffffffffffffffffffffffffffffffffffffff1690806004018054600181600116156101000203166002900480601f0160208091040260200160405190810160405280929190818152602001828054600181600116156101000203166002900480156147d75780601f106147ac576101008083540402835291602001916147d7565b820191906000526020600020905b8154815290600101906020018083116147ba57829003601f168201915b505050505090806005015490806006015490806007015490806008018054600181600116156101000203166002900480601f0160208091040260200160405190810160405280929190818152602001828054600181600116156101000203166002900480156148875780601f1061485c57610100808354040283529160200191614887565b820191906000526020600020905b81548152906001019060200180831161486a57829003601f168201915b5050505050905089565b600061489b6158be565b600284815481106148a857fe5b90600052602060002090600a02016009016000848152602001908152602001600020604051806101000160405290816000820160009054906101000a900460ff1660048111156148f457fe5b60048111156148ff57fe5b81526020016000820160019054906101000a900473ffffffffffffffffffffffffffffffffffffffff1673ffffffffffffffffffffffffffffffffffffffff1673ffffffffffffffffffffffffffffffffffffffff1681526020016001820160009054906101000a900473ffffffffffffffffffffffffffffffffffffffff1673ffffffffffffffffffffffffffffffffffffffff1673ffffffffffffffffffffffffffffffffffffffff168152602001600282018054600181600116156101000203166002900480601f016020809104026020016040519081016040528092919081815260200182805460018160011615610100020316600290048015614a485780601f10614a1d57610100808354040283529160200191614a48565b820191906000526020600020905b815481529060010190602001808311614a2b57829003601f168201915b50505050508152602001600382018054600181600116156101000203166002900480601f016020809104026020016040519081016040528092919081815260200182805460018160011615610100020316600290048015614aea5780601f10614abf57610100808354040283529160200191614aea565b820191906000526020600020905b815481529060010190602001808311614acd57829003601f168201915b5050505050815260200160048201548152602001600582018054600181600116156101000203166002900480601f016020809104026020016040519081016040528092919081815260200182805460018160011615610100020316600290048015614b965780601f10614b6b57610100808354040283529160200191614b96565b820191906000526020600020905b815481529060010190602001808311614b7957829003601f168201915b505050505081526020016006820154815250509050806020015191505092915050565b6060614bc36158be565b60028481548110614bd057fe5b90600052602060002090600a02016009016000848152602001908152602001600020604051806101000160405290816000820160009054906101000a900460ff166004811115614c1c57fe5b6004811115614c2757fe5b81526020016000820160019054906101000a900473ffffffffffffffffffffffffffffffffffffffff1673ffffffffffffffffffffffffffffffffffffffff1673ffffffffffffffffffffffffffffffffffffffff1681526020016001820160009054906101000a900473ffffffffffffffffffffffffffffffffffffffff1673ffffffffffffffffffffffffffffffffffffffff1673ffffffffffffffffffffffffffffffffffffffff168152602001600282018054600181600116156101000203166002900480601f016020809104026020016040519081016040528092919081815260200182805460018160011615610100020316600290048015614d705780601f10614d4557610100808354040283529160200191614d70565b820191906000526020600020905b815481529060010190602001808311614d5357829003601f168201915b50505050508152602001600382018054600181600116156101000203166002900480601f016020809104026020016040519081016040528092919081815260200182805460018160011615610100020316600290048015614e125780601f10614de757610100808354040283529160200191614e12565b820191906000526020600020905b815481529060010190602001808311614df557829003601f168201915b5050505050815260200160048201548152602001600582018054600181600116156101000203166002900480601f016020809104026020016040519081016040528092919081815260200182805460018160011615610100020316600290048015614ebe5780601f10614e9357610100808354040283529160200191614ebe565b820191906000526020600020905b815481529060010190602001808311614ea157829003601f168201915b5050505050815260200160068201548152505090508060c0015191505092915050565b60008060606000606060008060006060614ef961585c565b60028b81548110614f0657fe5b90600052602060002090600a0201604051806101200160405290816000820154815260200160018201548152602001600282018054600181600116156101000203166002900480601f016020809104026020016040519081016040528092919081815260200182805460018160011615610100020316600290048015614fcd5780601f10614fa257610100808354040283529160200191614fcd565b820191906000526020600020905b815481529060010190602001808311614fb057829003601f168201915b505050505081526020016003820160009054906101000a900473ffffffffffffffffffffffffffffffffffffffff1673ffffffffffffffffffffffffffffffffffffffff1673ffffffffffffffffffffffffffffffffffffffff168152602001600482018054600181600116156101000203166002900480601f0160208091040260200160405190810160405280929190818152602001828054600181600116156101000203166002900480156150c55780601f1061509a576101008083540402835291602001916150c5565b820191906000526020600020905b8154815290600101906020018083116150a857829003601f168201915b50505050508152602001600582015481526020016006820154815260200160078201548152602001600882018054600181600116156101000203166002900480601f0160208091040260200160405190810160405280929190818152602001828054600181600116156101000203166002900480156151855780601f1061515a57610100808354040283529160200191615185565b820191906000526020600020905b81548152906001019060200180831161516857829003601f168201915b5050505050815250509050806000015181602001518260400151836060015184608001518560a001518660c001518760e00151886101000151869650849450809050995099509950995099509950995099509950509193959799909294969850565b60006151f16158be565b600284815481106151fe57fe5b90600052602060002090600a02016009016000848152602001908152602001600020604051806101000160405290816000820160009054906101000a900460ff16600481111561524a57fe5b600481111561525557fe5b81526020016000820160019054906101000a900473ffffffffffffffffffffffffffffffffffffffff1673ffffffffffffffffffffffffffffffffffffffff1673ffffffffffffffffffffffffffffffffffffffff1681526020016001820160009054906101000a900473ffffffffffffffffffffffffffffffffffffffff1673ffffffffffffffffffffffffffffffffffffffff1673ffffffffffffffffffffffffffffffffffffffff168152602001600282018054600181600116156101000203166002900480601f01602080910402602001604051908101604052809291908181526020018280546001816001161561010002031660029004801561539e5780601f106153735761010080835404028352916020019161539e565b820191906000526020600020905b81548152906001019060200180831161538157829003601f168201915b50505050508152602001600382018054600181600116156101000203166002900480601f0160208091040260200160405190810160405280929190818152602001828054600181600116156101000203166002900480156154405780601f1061541557610100808354040283529160200191615440565b820191906000526020600020905b81548152906001019060200180831161542357829003601f168201915b5050505050815260200160048201548152602001600582018054600181600116156101000203166002900480601f0160208091040260200160405190810160405280929190818152602001828054600181600116156101000203166002900480156154ec5780601f106154c1576101008083540402835291602001916154ec565b820191906000526020600020905b8154815290600101906020018083116154cf57829003601f168201915b5050505050815260200160068201548152505090508060a0015191505092915050565b6000806002868154811061551f57fe5b90600052602060002090600a02016005015484128061555b57506002868154811061554657fe5b90600052602060002090600a02016006015484135b156155d457600390507f79cac76cbc80d3de8447a4b62b74924c2ecde7ca971fd7b519e74a6dbb428a948633604051808381526020018273ffffffffffffffffffffffffffffffffffffffff1673ffffffffffffffffffffffffffffffffffffffff1681526020019250505060405180910390a1615850565b600286815481106155e157fe5b90600052602060002090600a020160080160405160200180828054600181600116156101000203166002900480156156505780601f1061562e576101008083540402835291820191615650565b820191906000526020600020905b81548152906001019060200180831161563c575b505091505060405160208183030381529060405280519060200120856040516020018082805190602001908083835b602083106156a2578051825260208201915060208101905060208303925061567f565b6001836020036101000a03801982511681845116808217855250505050505090500191505060405160208183030381529060405280519060200120141561575757600490507f5a7c176f2db4640e49fd674671173e5f4451c62ebe72a187f1257457518372dc8633604051808381526020018273ffffffffffffffffffffffffffffffffffffffff1673ffffffffffffffffffffffffffffffffffffffff1681526020019250505060405180910390a161584f565b60018314156157d457600290507f3877e82ce25a0c53b4596e0c4cf14c8ca00a678a716fd38b6ce63ec724ea2dc68633604051808381526020018273ffffffffffffffffffffffffffffffffffffffff1673ffffffffffffffffffffffffffffffffffffffff1681526020019250505060405180910390a161584e565b600283141561584d57600190507ffb31e7114999e82af0a7084930a3cda5196f249fe625a3dbc1ce6588b702a7378633604051808381526020018273ffffffffffffffffffffffffffffffffffffffff1673ffffffffffffffffffffffffffffffffffffffff1681526020019250505060405180910390a15b5b5b5b80915050949350505050565b604051806101200160405280600081526020016000815260200160608152602001600073ffffffffffffffffffffffffffffffffffffffff16815260200160608152602001600081526020016000815260200160008152602001606081525090565b604051806101000160405280600060048111156158d757fe5b8152602001600073ffffffffffffffffffffffffffffffffffffffff168152602001600073ffffffffffffffffffffffffffffffffffffffff16815260200160608152602001606081526020016000815260200160608152602001600081525090565b828054600181600116156101000203166002900490600052602060002090601f016020900481019282601f1061597b57805160ff19168380011785556159a9565b828001600101855582156159a9579182015b828111156159a857825182559160200191906001019061598d565b5b5090506159b691906159ba565b5090565b6159dc91905b808211156159d85760008160009055506001016159c0565b5090565b9056fea265627a7a72315820cba8ab6352163ee2c0aef870be6ba46974b6595d787e4929975bb9db2c8227e164736f6c63430005100032",
  "source": "// SPDX-License-Identifier: MIT\r\npragma solidity  >=0.5.16;\r\n\r\ncontract SupChain{\r\n    \r\n    //List of events\r\n    event orderCreated(uint256 _orderID, address _counterparty);\r\n    event orderShipped(uint256 _orderID, address _counterparty);\r\n    event orderStored(uint256 _orderID, address _counterparty);\r\n    event orderOutOfCompliance(uint256 _orderID, address _counterparty);\r\n    event orderCompleted(uint256 _orderID, address _counterparty);\r\n    \r\n    // Possible state of the order\r\n    enum StateType {Created, InTransit, Stored, OutOfComplicance, Completed}\r\n\r\n    //The status of an order on the supply chain\r\n    struct Status{\r\n        // State of the order\r\n        StateType state;\r\n        // User taking over the order\r\n        address currentCounterparty;\r\n        // Previous user possessing the order\r\n        address previousCounterparty;\r\n        // IOT device monitoring the product temperature and location\r\n        string iotDevice;\r\n        // Actual location of the order\r\n        string actualLocation;\r\n        // Actual temperature of the environment\r\n        int256 actualTemperature;\r\n        // Next destination of the order\r\n        string destination;\r\n        // Date of creation/Shipping/Storage of the order\r\n        uint256 date;\r\n    }\r\n    \r\n    // An order of the supply chain\r\n    struct Order{\r\n        // ID of the order\r\n        uint256 orderID;\r\n        //Number of time the order has been shipped/stored \r\n        uint256 numberOfUpdate;\r\n        // Barcode of the corder\r\n        string barcode;\r\n        // User starting the supply chain by introducing an order\r\n        address initiatingCounterparty;\r\n        // List  the products inside the order\r\n        string productsList;\r\n        // Temperature minimal of the recommended environment\r\n        int256 temperatureMinimal;\r\n        // Temperature maximal of the recommended environment\r\n        int256 temperatureMaximal;\r\n        // Expiration date of the products\r\n        uint256 expirationDate;\r\n        // Last destination of the order\r\n        string finalDestination;\r\n        //Record the whole evolution of the status of an order\r\n        mapping (uint256 => Status) statutes;\r\n    }\r\n    \r\n    // Number of created order\r\n    uint256 public orderCount = 0;\r\n\r\n    //Just a test\r\n    string test;\r\n    \r\n    //Map the entirety of the orders of the supply chain\r\n    Order[] public orders;\r\n    \r\n    //Function allowing to know if an order is out of compliance or completed\r\n    function verification(uint256 id, string memory currentLocation, int256 currentTemp, int256 typeOfOrderUpdate) internal returns(StateType){\r\n        StateType orderState;\r\n        //We verify that the shipper/storer complied with the recommended order's storage/shipping environment \r\n        if(currentTemp < orders[id].temperatureMinimal || currentTemp > orders[id].temperatureMaximal){\r\n            orderState = StateType.OutOfComplicance;\r\n            emit orderOutOfCompliance(id, msg.sender);\r\n        //We verify if the order has arrived to its final destination\r\n        }else if(keccak256(abi.encodePacked(currentLocation))==keccak256(abi.encodePacked(orders[id].finalDestination))){\r\n            orderState = StateType.Completed;\r\n            emit orderCompleted(id, msg.sender);\r\n        }else if(typeOfOrderUpdate == 1){\r\n            orderState = StateType.Stored;\r\n            emit orderStored(id, msg.sender);\r\n        }else if(typeOfOrderUpdate == 2){\r\n            orderState = StateType.InTransit;\r\n            emit orderShipped(id, msg.sender);\r\n        }\r\n        return orderState;\r\n    }\r\n    \r\n    //Function allowing to create an order and add to the map with a null initial status\r\n    function createOrder(string memory _barCode, string memory _productList, int256 _min, int256 _max, uint256 _expDate, string memory _fDestination) public{\r\n        //We create a new order, give it its id, and add the variable inputted by the user\r\n        Order memory newOrder = Order(orderCount, 0, _barCode, msg.sender, _productList, _min, _max, _expDate, _fDestination);\r\n        orders.push(newOrder);\r\n        //We had the initial status of the order\r\n        orders[orderCount].statutes[orders[orderCount].numberOfUpdate] = Status(StateType.Created, msg.sender, msg.sender, '', '', 0, '', now);\r\n        emit orderCreated(orderCount, msg.sender);\r\n        //We update the total number of order\r\n        orderCount++;\r\n    }\r\n    \r\n    //Function allowing to change the status of an order when being stored\r\n    function storeOrder(uint256 id, string memory actualLoc, int256 actualTemp, string memory iotDevice) public{\r\n        //Get the correct state of the order\r\n        StateType actualState = verification(id, actualLoc, actualTemp, 1);\r\n        //We select the propert place where the status will be recorded\r\n        orders[id].statutes[orders[id].numberOfUpdate + 1] = Status(actualState, msg.sender,orders[id].statutes[orders[id].numberOfUpdate].previousCounterparty, iotDevice, actualLoc, actualTemp, '', now);\r\n        //We update the order number of update\r\n        orders[id].numberOfUpdate++;\r\n    }\r\n    \r\n    //Function allowing to change the status of an order when being shipped\r\n    function shipOrder(uint256 id, string memory actualLoc, int256 actualTemp, string memory iotDevice, string memory nextDestination) public {\r\n        StateType actualState = verification(id, actualLoc, actualTemp, 1);\r\n        orders[id].statutes[orders[id].numberOfUpdate + 1] = Status(actualState, msg.sender, orders[id].statutes[orders[id].numberOfUpdate].previousCounterparty, iotDevice, actualLoc, actualTemp, nextDestination, now);\r\n        orders[id].numberOfUpdate++;\r\n    }\r\n    \r\n    //Function allowing to get the desired status of an order\r\n    function getStatus(uint256 id, uint256 concernedStatusNumber) public view returns(StateType state, address cParty, address lParty, string memory device, string memory cLocation, int256 cTemp, string memory destination){\r\n        //Locate the concerned status of an order\r\n        Status memory concernedStatus = orders[id].statutes[concernedStatusNumber];\r\n        //Return all the status's variable\r\n        return(concernedStatus.state, concernedStatus.currentCounterparty, concernedStatus.previousCounterparty, concernedStatus.iotDevice, concernedStatus.actualLocation, concernedStatus.actualTemperature, concernedStatus.destination);\r\n    }\r\n    \r\n    //Function allowing to get the desired order basic information\r\n    function getOrder(uint256 id) public view returns(uint256 _id, uint256 updateNumber, string memory barCode, address iParty, string memory products, int256 min, int256 max, uint256 expDate, string memory fDestination){\r\n        Order memory o = orders[id];\r\n        return(o.orderID, o.numberOfUpdate, o.barcode, o.initiatingCounterparty, o.productsList, o.temperatureMinimal, o.temperatureMaximal, o.expirationDate, o.finalDestination);\r\n    }\r\n\r\n    //Getter function returning the number of orders created\r\n    function getOrderLength() public view returns(uint256 length){\r\n        uint256 _length = orders.length;\r\n        return _length;\r\n    }\r\n    \r\n    //Getter function of the number of times an order was updated\r\n    function getOrderNumberOfUpdate(uint256 id) public view returns(uint256 numberUpdate){\r\n        Order memory o = orders[id];\r\n        uint256 number = o.numberOfUpdate;\r\n        return number;\r\n    }\r\n    \r\n    //Getter function of the barcode of an order\r\n    function getBarcode(uint256 id) public view returns(string memory barCode){\r\n        Order memory o = orders[id];\r\n        string memory barcode = o.barcode;\r\n        return barcode;\r\n    }    \r\n    \r\n    //Getter function of the initiating counterparty of an order\r\n    function getInitiatingCounterpary(uint256 id) public view returns(address iParty){\r\n        Order memory o = orders[id];\r\n        address party = o.initiatingCounterparty;\r\n        return party;\r\n    }\r\n    \r\n    //Getter function of the product list of an order\r\n    function getProductList(uint256 id) public view returns(string memory products){\r\n        Order memory o = orders[id];\r\n        string memory product = o.productsList;\r\n        return product;\r\n    }\r\n    \r\n    //Getter function of an order's environment minimal temperature\r\n    function getMinTemp(uint256 id) public view returns(int256 minTemp){\r\n        Order memory o = orders[id];\r\n        int256 temp = o.temperatureMinimal;\r\n        return temp;\r\n    }\r\n    \r\n    //Getter function of an order's environment maximal temperature\r\n    function getMaxTemp(uint256 id) public view returns(int256 maxTemp){\r\n        Order memory o = orders[id];\r\n        int256 temp = o.temperatureMaximal;\r\n        return temp;\r\n    }\r\n    \r\n    //Getter function of the expiration date of an order\r\n    function getExpiration(uint256 id) public view returns(uint256 expiration){\r\n        Order memory o = orders[id];\r\n        uint256 exp = o.expirationDate;\r\n        return exp;\r\n    }\r\n    \r\n    //Getter function of the last destination of an order\r\n    function getLastDestination(uint256 id) public view returns(string memory lastDestination){\r\n        Order memory o = orders[id];\r\n        string memory dest = o.finalDestination;\r\n        return dest;\r\n    }\r\n    \r\n    //Getter function of the current state of an order\r\n    function getState(uint256 id, uint256 concernedStatusNumber) public view returns(StateType state){\r\n        Status memory concernedStatus = orders[id].statutes[concernedStatusNumber];\r\n        return concernedStatus.state;\r\n    }\r\n    \r\n    //Getter function of the current counterparty  of an order\r\n    function getCurrentCounterpary(uint256 id, uint256 concernedStatusNumber) public view returns(address cParty){\r\n        Status memory concernedStatus = orders[id].statutes[concernedStatusNumber];\r\n        return concernedStatus.currentCounterparty;\r\n    }\r\n    \r\n    //Getter function of the previous counterparty of an order    \r\n    function getPreviousCounterpary(uint256 id, uint256 concernedStatusNumber) public view returns(address pParty){\r\n        Status memory concernedStatus = orders[id].statutes[concernedStatusNumber];\r\n        return concernedStatus.previousCounterparty;\r\n    }\r\n    \r\n    //Getter function of the monitoring device of an order\r\n    function getDevice(uint256 id, uint256 concernedStatusNumber) public view returns(string memory device){\r\n        Status memory concernedStatus = orders[id].statutes[concernedStatusNumber];\r\n        return concernedStatus.iotDevice;\r\n    }\r\n    \r\n    //Getter function of the current location of an order\r\n    function getCurrentLocation(uint256 id, uint256 concernedStatusNumber) public view returns(string memory cLocation){\r\n        Status memory concernedStatus = orders[id].statutes[concernedStatusNumber];\r\n        return concernedStatus.actualLocation;\r\n    }\r\n    \r\n    //Getter function of the actual temperature of an order\r\n    function getCurrentTemperature(uint256 id, uint256 concernedStatusNumber) public view returns(int256 cTemp){\r\n        Status memory concernedStatus = orders[id].statutes[concernedStatusNumber];\r\n        return concernedStatus.actualTemperature;\r\n    }\r\n    \r\n    //Getter function of the next destination of an order\r\n    function getNextDestination(uint256 id, uint256 concernedStatusNumber) public view returns(string memory nDestination){\r\n        Status memory concernedStatus = orders[id].statutes[concernedStatusNumber];\r\n        return concernedStatus.destination;\r\n    }\r\n    \r\n    //Getter function of the date of creation/shipping/storage of an order\r\n    function getDate(uint256 id, uint256 concernedStatusNumber) public view returns(uint256 date){\r\n        Status memory concernedStatus = orders[id].statutes[concernedStatusNumber];\r\n        return concernedStatus.date;\r\n    }\r\n\r\n}",
  "sourcePath": "C:/Users/Heraxia/Downloads/Dapp - SupChain/contracts/SupChain.sol",
  "compiler": {
    "name": "solc",
    "version": "0.5.16+commit.9c3226ce.Emscripten.clang"
  },
  "schemaVersion": "3.2.3",
  "updatedAt": "2020-09-01T18:53:31.733Z",
  "networkType": "ethereum",
  "devdoc": {
    "methods": {}
  },
  "userdoc": {
    "methods": {}
  }
}